S02000006D6F645F6C697665776972655F636F6E74726F6C5F626574612E73333773
S21400000000100020D1470000CD470000CD4700007B
S214000010CD470000CD470000CD470000CD4700008B
S214000020CD470000CD470000CD470000CD4700007B
S214000030CD470000CD470000CF960000A93800004D
S214000040CD470000CD470000CD470000454E0000DC
S214000050CD470000CD47000099430000A5430000AF
S214000060CD470000CD470000CD470000CD4700003B
S214000070CD470000614E0000CD470000CD47000090
S214000080CD470000CD470000CD470000CD4700001B
S214000090CD470000CD470000CD470000CD4700000B
S2140000A0CD470000CD470000CD470000CD470000FB
S2140000B0CD470000CD470000CD470000A9BA00009C
S2140000C0CD470000CD470000CD470000CD470000DB
S2140000D0CD470000CD470000CD470000A9430000F3
S2140000E0B5430000CD470000CD470000CD470000D7
S2140000F0CD470000CD470000CD470000CD470000AB
S214000100CD470000CD470000CD470000CD4700009A
S214000110CD470000CD470000CD470000CD4700008A
S214000120CD470000CD470000CD470000CD4700007A
S214000130CD470000CD470000CD470000CD4700006A
S214000140CD470000CD470000CD470000CD4700005A
S214000150000000000000000010B5054C237833B9FD
S214000160044B13B10448AFF300800123237010BD85
S214000170B81100200000000070FB010008B5034B1A
S2140001801BB103490348AFF3008008BD0000000020
S214000190BC11002070FB0100A3F5803A704700BF39
S2140001A0174B002B08BF134B9D46FFF7F5FF0021AA
S2140001B08B460F461348144A121A0CF069FB0E4B76
S2140001C0002B00D098470D4B002B00D098470020FE
S2140001D0002104000D000D48002802D00C48AFF3A3
S2140001E000800CF0E9FA2000290003F04DFB0CF02B
S2140001F0CFFA00BF0000080000000000000000006A
S21400020000100020B81100205C56002000000000FE
S2140002100000000010B588B9094C207882070CD47D
S214000220C30706D5074A0849084803F01FF803F035
S21400023077F9207800F0FE00207010BD0120FCE762
S2140002400010002040410500801A060000100F40F4
S21400025010B9024B18787047012070470010002034
S214000260F8B50E4615461C4690B98BB10A4B1B785E
S214000270DB070FD4094F294632463846013C03F0C7
S214000280F3F814F0FF0405F10105F4D12046F8BD9B
S2140002900424FBE70324F9E70010002000100F40B9
S2140002A0F8B50E4615461C46A0B99BB10C4B1B78FC
S2140002B0DA0711D45B0711D40A4F2946324638466E
S2140002C0013C03F0FFF814F0FF0405F10105F4D13A
S2140002D02046F8BD0424FBE70324F9E70224F7E7E9
S2140002E00010002000100F40D0B9104B187810F006
S2140002F0010017D1082913D8DFE801F016080C1002
S21400030012121212050001221A7070474FF4007381
S214000310136070474FF4007313807047FF23F7E7AE
S21400032004207047032070470846704700100020DE
S2140003300068704703460068596870470B0A0170EA
S21400034043700B0C090E8370C1707047110A02705F
S2140003504170110C120EC2701A0A037142711A0C07
S2140003601B0E81708271C3717047C3690239023BEC
S2140003708B4283BF4389006B01FB0300002070475C
S214000380C2F307238A76CB760378032B01BF120CC1
S2140003900A75120A4A75704700F10B010022D30154
S2140003A043EA520310F8012B52FA83F38842DAB27A
S2140003B0F5D11046704710B541780446013100204B
S2140003C049010246022A1DBFA35C03EBC0339BB261
S2140003D0032218BF03EB500302F1010218BF98B2C4
S2140003E09142EFD810BD02684AB1134613F8011BBC
S2140003F01F290BD93A29F9D1911C8B4202D04FF014
S214000400FF3070471278302AF9D103600020704719
S21400041038B50D46044618B9092000232B6038BDB0
S2140004200368002BF8D01A78002AF5D08188DA887D
S2140004309142F1D15878FFF70BFF10F00100EBD195
S2140004402368EBE738B50546002435F8020B08B9F3
S214000450204638BD02F068FE630803EBC433C2B220
S21400046012FA83F39AB2C0F3072303EB520303EBAB
S214000470C2339CB2E9E77F2804D80AB1087001228B
S21400048010467047B0F5006F0CD2012A4CD983098C
S21400049000F03F0063F03F0360F07F000B70487091
S2140004A00222EDE7B0F5803F16D2022A3CD9A0F52D
S2140004B05843B3F5006F37D3030B63F01F030B707D
S2140004C0C0F3851300F03F0063F07F0360F07F0009
S2140004D04B7088700322D3E7032A25D9030C1B042C
S2140004E003F120539B09B3F5801F1DD280B2A0F5FF
S2140004F05C40B0F5806F17D2184300F58030830C4F
S21400050063F00F030B70C0F3053363F07F034B708B
S214000510C0F3851300F03F0063F07F0360F07F00B8
S2140005208B70C8700422ABE70022A9E737B5C37802
S21400053004461BB90025284603B030BD00F13C0137
S214000540826B407801910123FFF7AAFE054680B929
S214000550A36AE070A06B226AC31A9342EAD2A37819
S2140005600199022BE6D1024401236078FFF798FE3A
S214000570E1E70125DFE738B5836B8B4205460C467D
S21400058010D0FFF7D3FF60B922466878012305F143
S2140005903C01FFF765FE00281CBF4FF0FF3401202A
S2140005A0AC6338BD0020FCE738B50023C3704FF0BD
S2140005B0FF3383630446FFF7DEFF00284BD1B4F811
S2140005C03A524AF655239D4207D126490B2204F19A
S2140005D03C000CF025F900283FD094F83C30EB2B7B
S2140005E003D01833DBB2012B2ED84AF655239D4292
S2140005F006D11D49082204F18E000CF011F948B30B
S214000600B4F84730B3F5007F1ED194F84930DBB11B
S2140006105A1E1A4218D1B4F84A30ABB194F84C308E
S214000620013B012B10D8B4F84D306BB1B4F84F3005
S2140006307F2B06D804F15C00FFF77AFEB0F5803F0A
S21400064002D3B4F8523053B94AF6552085420CBF4F
S2140006500220032038BD0420FCE70120FAE7002032
S214000660F8E700BF2CFA000038FA000002392DE93E
S214000670F047466B01F007044FF0010A0AFA04F44B
S21400068005461746984606EB1136C1F3C809E4B28C
S214000690314628460136FFF76EFF18B10120BDE847
S2140006A0F087994605EB090292F83C30234214BFC6
S2140006B001210021414514D06340013F82F83C30BF
S2140006C085F803A0EBD0640014F0FF04EAD109F12A
S2140006D00103B3F5007F4FF001044FF00009E0D1AD
S2140006E0D6E70220DBE70129F8B502460C4640F2C1
S2140006F08B800668F3698B4240F286803378013B34
S214000700032B00F28180DFE803F00229374AB16A42
S21400071004EB540501EB55213046FFF72CFF10B1D2
S2140007204FF0FF30F8BD6F1CB16AC5F308053544BD
S21400073001EB5721304695F83C50FFF71CFF002888
S214000740EED1C7F308073E44E30796F83C0045EAB7
S21400075000204CBF0009C0F30B00E3E7B16A304647
S21400076001EB1421FFF707FF0028D9D1640004F439
S214000770FF742644B08FD5E7B16A304601EBD4113A
S214000780FFF7F9FE0028CBD1A40006F13C0004F4E4
S214000790FE742044FFF7CCFD20F07040C2E7D0E99D
S2140007A0043053EA0001D57901D0916801B95DBBE8
S2140007B09168022DA4EB01010DD1013B40F1FF3001
S2140007C05B0A728943EAC053B3FBF2F399421BD823
S2140007D01CD0601CA6E7032D02D193698B42F8D883
S2140007E0D3699BB9B16A304601EBD411FFF7C3FE5B
S2140007F0002895D1A0003C3600F4FE703044FFF788
S21400080097FD20F000408DE701208BE76FF0004059
S21400081088E7F8B506683378042B0CBF4FF0805293
S2140008204FF400128A4204460D4601D80220F8BD55
S214000830CA06FBD182680163D2B9022B13D833896A
S214000840B3EB551FF2D9F36AA363A36B6263002B65
S214000850ECD003EB55233C36C5F308053544A363BB
S214000860E5630020E3E7F36AC271002BE7D01A467F
S21400087077897F02BD42114604D23046FFF775FDE8
S214000880A063E2E72046FFF72EFF431C024606D091
S2140008900128CBD9F3698342C8D9ED1BEAE70120CA
S2140008A0C5E701292DE9F04706460C46174608D944
S2140008B0C3698B4205D90378022B61D003D8012B7C
S2140008C022D0022551E0033B012BFAD8816A01EBC6
S2140008D0D411FFF750FE0546002846D1A40006F1C5
S2140008E03C0304F4FE741C443378042B07D02046E3
S2140008F0FFF71EFD27F0704700F0704007433946AB
S2140009002046FFF71BFD2EE001EB5108816A01EB44
S2140009105821FFF730FE054638BB06F13C0908F1C2
S214000920010AC8F3080814F001041FBF19F80830BC
S21400093003F00F023B0103F0F00314BF1343FBB2B6
S21400094009F80830B16A0123F37001EB5A213046EA
S214000950FFF711FE054640B9CAF3080A44B1C7F3CB
S214000960071709F80A700123F3702846BDE8F087D8
S21400097019F80A30C7F3032723F00F031F43F0E7E5
S214000980816A01EB1421FFF7F6FD05460028ECD13D
S214000990640006F13C0304F4FF7419191F55C7F3ED
S2140009A007274F70DFE7F8B504460E461746E3699B
S2140009B00BB91846F8BD012BA6EB030514BFAA1CFD
S2140009C03A462068691CFFF76CFF0028F2D1E369FD
S2140009D0013BE361EBE701292DE9F843056806468C
S2140009E00C46174602D80220BDE8F883EB698B4216
S2140009F0F9D97AB9A14621463046FFF774FEA046DB
S214000A000446B0B92B78042B02D1002F43D1F771DE
S214000A100020E9E72B78042B02D1C379022BE9D01A
S214000A204FF0FF3239462846FFF73BFF0028E1D05B
S214000A30DAE70128D7D0421C01D10120D4E72B7871
S214000A40042B19D1D5E90632023A93421CD308F199
S214000A500102A2420CD02B78042B08D10023A2EB73
S214000A60090249462846FFF701FE0028BCD1A146E8
S214000A70EB69A342BFD8C5E7002241462846FFF7E8
S214000A8010FF0028DED0AFE70133AB612B7943F0CF
S214000A9001032B71DBE7F3798BB9B468BC4202D152
S214000AA00223F371B4E721463046FFF71CFE012807
S214000AB099D9431CC1D001348442EFD0A8E7032B58
S214000AC0A6D1B368BB42A3D8B2691344BB429FD336
S214000AD0E6E770B5C379032B044606D181688369BF
S214000AE0CD18A94203D10023E371002070BD4E1C2F
S214000AF020683246FFF7D5FE0028F7D13146F0E7EA
S214000B002DE9F74305460191FFF710FD044600283E
S214000B104CD101992846FFF728FC05F13C09A8634B
S214000B20214607464FF4007248460BF0B1FE6C892A
S214000B306402B4F5004F28BF4FF40044B4F5007FBC
S214000B4032D9204602F0A1FA804648B1224600215A
S214000B504FEA54290BF09CFE0026C4F3472409E014
S214000B606408EBE768782346BA194146FFF798FB16
S214000B7018B94E446B899E42F4D3404602F087FA79
S214000B806889801B18BF012003B0BDE8F0830136DA
S214000B906B899E42F4D268780123BA194946FFF75A
S214000BA07FFB0028F3D0EBE70026F1E70120EBE718
S214000BB0F8B50446FFF7BAFC0546002842D123786C
S214000BC0032B37D12779012F34D104F13C06014697
S214000BD04FF4007230460BF05BFE552384F83A3231
S214000BE0AA2384F83B3252234122722184F83C30F7
S214000BF084F83D30612384F83E3084F8233284F84C
S214000C003F2084F8201284F8211284F82222A16959
S214000C1004F50970FFF792FB616904F50A70FFF7A7
S214000C208DFB626A60780132A2633B463146FFF76D
S214000C3037FB2571002260781146FFF755FB003818
S214000C4018BF0120F8BD00002DE9F043002385B051
S214000C500B600F461546FFF7C6FB061EC0F2B281B4
S214000C60804B53F82640002C00F0AE813C60237881
S214000C7005F0FE056BB16078FFF7EAFAC70708D4FF
S214000C801DB110F0040500D00A25284605B0BDE8C1
S214000C90F0830023F0B223706070FFF7BBFAC10741
S214000CA000F194810DB14207EED400212046FFF7F3
S214000CB07BFC022840F099806E4604F2022304F280
S214000CC0422132461846FFF733FB10338B4242F878
S214000CD0040BF7D1002556F8041B00297DD02046CA
S214000CE0FFF762FC012879D80128A26B40F0C0808B
S214000CF004F1470304F17C0113F8015B002D7BD15E
S214000D008B42F9D1B4F8A430B3F5807F74D194F84F
S214000D10A830092B70D104F18400FFF70BFB4FF0CD
S214000D20FF33171841F10001BB4275EB010363D393
S214000D3004F19000FFF7FCFA94F8AA302062012B29
S214000D40A37059D194F8A99003FA09F91FFA89F308
S214000D506381002B50D004F19800FFF7E9FA424B6C
S214000D609842064648D8831CE361626204F1940008
S214000D70FFF7DEFA00EB0208C4F8308004F18C00BE
S214000D80FFF7D6FA10441FFA89F206FB02F313EBBC
S214000D90080345EB05029F4271EB0203A0622BD3CA
S214000DA004F19C00FFF7C4FA2E46E06265B9638939
S214000DB0B34221D9E16A2046FFF7D7FA81192046C7
S214000DC0FFF7D9FB98B90136631993F83C30812BAD
S214000DD014D02035C5F30805E8E703200135042DB7
S214000DE07FF479AF042807D101E0042801D101255A
S214000DF04BE701287FF678AF0D2546E705F114008E
S214000E0004F13C063044FFF793FA01280546F3D96F
S214000E10E3698342F0D96189236B821E02FB0133AA
S214000E206363A16A204601EBD511FFF7A4FB0028F7
S214000E30DDD105F07F0006EB8000FFF779FA431C52
S214000E4003D00135A842ECD0D6E7C4E90500042556
S214000E50064A2570138801339BB21380E380002571
S214000E6013E700BFD4110020FDFFFF7FD81100203C
S214000E70B4F84730B3F5007FBED1B4F8526026B957
S214000E8004F16000FFF754FA064694F84C302662E8
S214000E90591E0129A370AFD894F849506581002DDA
S214000EA0AAD0691E2942A7D1B4F84D80A4F80880BC
S214000EB018F00F0FA0D1B4F84F0018B904F15C0079
S214000EC0FFF736FAB4F84A10002995D006FB03FE61
S214000ED001EB181CF44460458ED3A0EB0C00A8422E
S214000EE0B0FBF5F388D33E48834285D84FF6F570BD
S214000EF083426DD903259F1C114402EB0C03032D7E
S214000F00E7616262A16223634CD1B4F8663053EAAB
S214000F1008037FF471AF04F16800FFF709FABB001D
S214000F20E06203F2FF13B6EB532FFFF465AF4FF00A
S214000F30FF33C4E90533032D4FF08003237187D1B7
S214000F40B4F86C30012B83D1511C2046FFF713FBFD
S214000F5000287FF47DAFB4F83A2220714AF6552374
S214000F609A427FF475AF04F13C00FFF7E1F91D4BA0
S214000F7098427FF46DAF04F50870FFF7D9F903F1D6
S214000F80FF5303F50053203398427FF461AF04F516
S214000F900970FFF7CDF9A06104F50A70FFF7C8F9EC
S214000FA0606155E7B8F1000F3FF426AF7144022D9B
S214000FB04FEA4703E1621EBFD91907F0010303EBAE
S214000FC05103AEE70B2560E60C255EE603255CE6DE
S214000FD040F6F575AB428CBF022501258BE700BFB6
S214000FE0F5FFFF0F525261412DE9F84F056807469D
S214000FF0884649B96E69C6B1EB69B34298BF012607
S214001000AB69A3B9002405E0FFF76DFB0128044691
S21400101003D801242046BDE8F88F421C00F0D28099
S214001020EB698342F6D84646EAE70126E8E72A78DF
S214001030EB69042A40F08380A6F1020A023B9A4537
S21400104028BF4FF0000AD1464FF0010B696B2846C7
S21400105001EB1931FFF78FFA00283BD1EA6909F056
S21400106007030BFA03F3C9F3C801DBB2901E6A1834
S2140010704C4692F83C2009F10109814502EA030238
S21400108035BF5B000023DBB2994628BF4FF40071E2
S214001090B2B90234631E0333BCD801231A46214674
S2140010A02846FFF7E3FA0228B3D0012800F08A802A
S2140010B0B8F1000F13D10223FB710028A9D130E04C
S2140010C0CA450AD0002BD2D10131B1F5007FBDD27E
S2140010D00123CCE74FF0FF34DCE70024DAE7FB79A6
S2140010E0022B07D1731CA342E7D0BB68F31ABB617F
S2140010F00323FB7108F10102A242FB6905D113B17B
S2140011000133FB61D9E70223FBE70BB90123FB613F
S214001110224641463846FFF746FC00284FD10123B9
S214001120FB61D5E90632023A93429CBF03F1FF33D6
S214001130AB612B796C6143F001032B716AE746457E
S21400114014D1741CA34298BF022421463846FFF7E8
S214001150CAFA01283FF45DAF431C33D0E0B16B6997
S214001160012B03D9EA69934238BF1E463446EB6921
S2140011700134A34203D8012E7FF644AF0224214651
S2140011803846FFF7B0FA48B101283FF442AF0130C5
S21400119018D0B442EBD135E7002CE7D04FF0FF3241
S2140011A021462846FFF77DFB48B9B8F1000FB8D0B6
S2140011B0224641462846FFF774FB0028B1D0012896
S2140011C07FF427AF4FF0FF3424E72DE9F843066895
S2140011D0076B3378042B0CBF4FF080534FF400138B
S2140011E02037BB429CBF00238363836B044689463B
S2140011F073B1C7F30808B8F1000F3CD1416B013357
S214001200836339B93389B3EB571F34D80023A363FC
S21400121004200AE07389013B13EA57232BD1FFF71A
S21400122062FA0128054602D80220BDE8F883421C6F
S21400123001D10120F9E7F369834216D8B9F1000F0E
S214001240E4D0616B2046FFF7CFFE0546C8B1012803
S214001250EAD0431CEDD001463046FFF751FC00288B
S214001260E7D1E37943F00403E3716563294630462A
S214001270FFF77BF8A0633C3646442763E66300200E
S214001280D3E70720D1E7F8B50E46002107680446E5
S214001290FFF7BFFA98B90546A16B3846FFF76BF91A
S2140012A068B93A78E36B042A1B780CD11B060ED576
S2140012B0054601212046FFF788FF0028ECD00428C9
S2140012C008BF072006E0E52B01D0002BF0D1013542
S2140012D0B542EED1F8BDC16C4B1C2DE9F041056856
S2140012E0066B04461FD1E5274FF00108A16B284680
S2140012F0FFF741F998B92A78E36B042A09BF1A78F0
S2140013001F7002F07F021A7085F80380236BB342C9
S2140013100DD200212046FFF758FF0028E6D004280B
S21400132008BF022003E0FFF774FA0028DBD0BDE810
S214001330F0812DE9F04105460068A96B0669FFF7C4
S2140013401AF9044620B9EB6B1A78852A03D00224D2
S2140013502046BDE8F081324603F1200153F8040B25
S21400136042F8040B8B42F9D1777801377F01A7F159
S2140013706003B3F5007FEAD800212846FFF725FF73
S21400138004280446E3D00028E2D1A96B2868FFF7BA
S214001390F2F804460028DBD1EB6B1A78C02AD6D1C7
S2140013A006F1200203F1200153F8040B42F8040B67
S2140013B08B42F9D196F823300F222C33B3FBF2F38D
S2140013C0B7EB431FC3D34FF0400800212846FFF772
S2140013D0FCFE04280446BAD00028B9D1A96B2868B8
S2140013E0FFF7C9F804460028B2D1EB6B1A78C12A79
S2140013F0ADD1B8F5187F09D206EB080203F120013B
S21400140053F8040B42F8040B8B42F9D108F120087C
S2140014104745DAD8B8F5187F9AD83046FEF7CBFF9E
S2140014207388834294D092E7F8B503681C69054632
S2140014302046FEF7C0FFA070000AE070E96C6678F0
S2140014402846FFF7E6F9012720B1022828BF022028
S214001450C0B2F8BDA96B2868FFF78DF80028F4D154
S214001460EB6B04F1200254F8041B43F8041B94426F
S214001470F9D12B68DF70002EE7D000212846FFF751
S214001480A4FE013EE0E700002DE9F8434FF0FF0818
S21400149007680646454604244FF6FF79B16B11B936
S2140014A0002C73D063E03846FFF765F80446002842
S2140014B05DD1F06B0378002B6ED03A78042A11D1F8
S2140014C0852B4DD1336BF3643046FFF732FF04466D
S2140014D000284CD13B691B7903F03F03B3712046CB
S2140014E0BDE8F883C27AE52B02F03F02B27143D022
S2140014F02E2B41D022F0200108293DD00F2A40D1C2
S214001500590637D503F0BF05336B90F80D80F364AA
S214001510437B434530D1428B72BB0378FC68DFF8CF
S2140015207CE023F040030D21013B4B4301211EF8D4
S21400153001CB30F80CC009B3FF2B1DD824F813C01C
S2140015406146013301320D2AF1D10278520605D5E3
S21400155021B1FF2B10D8002224F81320013DEDB254
S21400156000213046FFF731FE0446002896D00023BF
S214001570B363B4E7AB42CBD0FF25F1E7CC45E1D06F
S214001580FAE72DB9FEF708FF404501D10024A6E78B
S2140015904FF0FF33F364A2E70424E8E751FA0000B3
S2140015A02DE9F04F002187B0D0F800900446FFF7F1
S2140015B030F9804670B999F80030042B33D1D9F849
S2140015C00C00FEF73FFF07462046FFF75DFF054687
S2140015D020B18046404607B0BDE8F08FD9F81030FD
S2140015E09A8CBA42F0D193F823B040265D4506D1D6
S2140015F0D9F80C3033F81530002BE5D1EAE7F106C0
S21400160008BF0236D9F81030985B01F08DFDD9F886
S2140016100C30824633F8150001F086FD8245D3D1A2
S21400162002360135E2E74FF0FF3B4FF0FF0AC4F801
S2140016304CB05546A16B4846FEF79DFF00285CD18E
S214001640E66B3778002F77D0F27AE52F02F03F036B
S214001650A37103D0120704D50F2B04D0C4F84CB0E6
S2140016604FE00F2B54D194F84B3058063FD47906F0
S21400167045D5236B96F80DA0E36407F0BF07737B90
S21400168053453ED1738B002B3BD13578D9F80C30BF
S214001690019305F03F050D23013D5D43284B0121D5
S2140016A013F8012BB25A71B3FF2D059329D81046B3
S2140016B0049201F039FD6B1C0293019B039033F8F2
S2140016C0150001F031FD039981421AD1049A029D5A
S2140016D0059B11461B4A9342E2D133785A0604D53D
S2140016E019B1019B33F815305BB97D1EEDB20021B0
S2140016F02046FFF76AFD00289CD080466AE7BD4278
S214001700BDD0FF25F3E74FF6FF708242E2D0F8E740
S2140017102DB93046FEF740FE50453FF45BAF94F8D7
S2140017204B30DB079AD40B2204F1400130460BF015
S21400173077F8002892D14DE74FF004084AE700BF3B
S21400174051FA00005EFA00002DE9F04F90F84BB019
S2140017501BF0A00599B0044640F090810668F26838
S21400176032F81530002B60D13378042B40F09D8082
S2140017700F230E352046B5FBF3F5A91CFFF783FDB6
S2140017808146002840F08D80236B0135A3EB45157C
S214001790E379E5645A074AD523F00403E37120464B
S2140017A0FFF797F900283ED1616B4FF0FF322046D5
S2140017B0FFF7F9F8002836D1A368002B37D0236846
S2140017C00493236A0693636AA16A8DF8173004A807
S2140017D023F0FF03CDE90839CDF82C901791FFF7D9
S2140017E018F800BB04A8FFF7A4FDE0B9D4E9042369
S2140017F070894FF40071E0FB01233069C4E90423CB
S2140018003830FEF7A3FD3069D4E904232830FEF70C
S2140018109DFDE379326943F0010382F8213004A884
S214001820FFF702FE18B181463BE0013598E7D6E99E
S21400183003544022002120460BF02AF8852323700B
S214001840C02384F82030012100231E4640224FF09A
S214001850C10C9E4604EB0108571C04F802C004F8AD
S21400186007E0F0B2023221B135F8131009B10133A6
S214001870DBB20F0AA15408F802700232D706F2D182
S21400188035F813700136002FE6D184F82330831C18
S21400189063702846FEF7D6FD84F82400000A84F814
S2140018A02500484619B0BDE8F08F04F1400797E8D8
S2140018B007000DF1100A1BF0010F8AE8070000F080
S2140018C0E580402384F84B304FF001089AE8070083
S2140018D0BC46F368ACE803002CF8022BB8F1050F01
S2140018E04FEA12428CF800205AD9981E424630F829
S2140018F0021F002942D10DF10F0C072102F00F093B
S21400190009F13000392888BF09F137000CF80109C1
S214001910481E96464FEA121246D0BEF10F0F41D827
S21400192018AB1A184FF07E0C02F858CC0022A1F122
S214001930020C904202D9B95C202937D104F13F0C41
S21400194007289CBF18AB191802F1010296BF11F8C0
S214001950581C20210130072A0CF80210F0D9204626
S214001960FFF71EFE8146002840F08B8008F1010834
S214001970B8F1640FAAD14FF0070992E74FF0100CA8
S21400198001F0010E0EEB4202D30344BF82F488320C
S21400199082F02102BCF1010C4FEA5101F0D1A6E71A
S2140019A04246A8E70146A9E70121B9E780290AD9F6
S2140019B09F2903D92031C9B21C2904D8944502F1C5
S2140019C00101BBD00A460132B3E7216B2046A1EBEA
S2140019D04511FEF71EFF814600287FF462AF3846A9
S2140019E0FEF7DAFC4FF6FF780190A16B3046FEF763
S2140019F0C2FD814600287FF454AFE36B019AD6F807
S214001A000CE05A73E9B24FF00F024FF00D0CDA7289
S214001A10DFF8DCA018734A1E0CFB02F29876D87624
S214001A2084461AF8019B404518BF3EF8120003F89A
S214001A30090003EB090B0CF1010C18BF01324FEA49
S214001A401029002808BF4046BCF10D0F8BF8019006
S214001A50E7D1404502D03EF812200AB941F04001D5
S214001A6019700123F37000212046FFF7AEFB814674
S214001A7000287FF416AF013DB7D11BE04FF00609F2
S214001A800FE704287FF40DAF84F84BB01BF0020F6D
S214001A901BBF0C350D210125B5FBF1F518BF01352F
S214001AA029462046FFF7EFFB814600287FF4F9AE73
S214001AB0013D8AD1A16B3046FEF75DFD81460028C8
S214001AC07FF4EFAE01462022E06B0AF0E1FE03CF82
S214001AD0E36B18605960BA78398819819A7294F85D
S214001AE04B30E26B03F0180313730123F370D8E650
S214001AF051FA000010B504463430FEF719FC886031
S214001B0004F138000A46FEF715FCC2E9040194F811
S214001B10213003F00203D3710023D36110BD0328E4
S214001B204B8B04BF8A8A43EA02431846704700007C
S214001B302DE9F04F85B0036801930446884611F8F6
S214001B40013B2F2BFAD05C2BF8D00021A160E1617D
S214001B5098F800301F2B00F24B818023204684F833
S214001B604B3005B0BDE8F04FFEF753BE01F0E00382
S214001B70C02B30D101F01F010123013343449046AE
S214001B8018F8012B02F0C000802840F0608102F0B7
S214001B903F02434542EA8111F2D1AF4AA1F18003E8
S214001BA0934200F25481A1F55843B3F5006FC0F09C
S214001BB04E81B1F5803FC0F02981A84AA1F5803357
S214001BC002EA8313C1F30901194339430B0C2BF8BE
S214001BD0163001361AE101F0F003E02B03D101F0D4
S214001BE00F010223C9E701F0F803F02B40F02F8124
S214001BF001F007010323C0E7424613782F2B9046D7
S214001C0002F10102F9D05C2BF7D01F2B8CBF002508
S214001C100425ABF10202A6BB00232BF81630002EDB
S214001C2000F015813BF8131020291A4603F1010332
S214001C30F8D00AB92E2901D145F00305ABF102010F
S214001C4031F816302E2B01D0013EF9D14FF020335B
S214001C504FF0000963642364C4F847304FF0080A65
S214001C604F463BF81210531C11B3202903D02E29DF
S214001C700FD19E4211D045F003051A46F1E7042520
S214001C80C7E732F81630202B01D02E2BC4D1013EE8
S214001C90C1E7D14505D29E4249D1BAF10B0F3ED1DC
S214001CA002E0BAF10B0F35D145F003054FF00B0AF1
S214001CB094F84030E52B04BF052384F84030BAF191
S214001CC0080F04BFBF00FFB207F00C030C2B03D0B5
S214001CD007F00303032B01D145F00205AE0707D436
S214001CE0F80748BF45F01005790748BF45F00805D6
S214001CF084F84B502046FFF753FC94F84B300028EE
S214001D005ED0042803D113F0040F08BF052005B0E9
S214001D10BDE8F08F9E4202D045F00305C8D3BF0051
S214001D20FFB233464FF00B0A4FF00809A5E77F29AC
S214001D3028D945F0020208460393029201F0F4F90E
S214001D404FF4697101F0A6F9FF28DDE90223014688
S214001D5016D90AF1FF30814503D345F00305D14675
S214001D608BE704EB09000D0A80F8405009F10109E1
S214001D70154604EB090209F1010982F840107CE7D8
S214001D80154678B13648CDE902130AF0FDFFDDE9C5
S214001D90021338B9A1F1410292B2192A06D847F0C7
S214001DA00207E6E745F003055F21E2E7A1F16102DD
S214001DB092B2192A9EBF203947F0010789B2D8E7A8
S214001DC05A07A4D4A379DB0643D5019B18780428C8
S214001DD033D1A36823622369E27923F0FF03134318
S214001DE06362E36CA362019B21461869FFF782FEDB
S214001DF023681C4FD3F80CB0DFF86C9000264246E0
S214001E0012F8011B0B063FF5B1AE90468DB21F2DA2
S214001E107FF635AF2F2D3FF4EFAE5C2D3FF4ECAEE2
S214001E207F2D04D8294648460AF0AEFF78B9FE2E24
S214001E300DD82BF816500136E1E7019B216B3C3399
S214001E40C1F308011944FFF76AFEA060D0E7062038
S214001E505DE705205BE700BF7FFF10000000FF0383
S214001E604AFA000000DC00D841FA00002DE9F843E9
S214001E700026D0F800808E76836B07460C46002B33
S214001E8049D098F80030042B4AD1334635464027CF
S214001E901FE0B7F5187F80F0F380F90608BF023719
S214001EA00136D05B02372BB900F5205292B2B2F55C
S214001EB0006F0DD305F11A01C5F1FF02214440EA77
S214001EC00340FEF7D8FA002800F0DA800544002028
S214001ED00346D8F8102092F82310B142D9D8002B28
S214001EE040F0CE80002D00F0CB8025440023AB765A
S214001EF06373D8F81020137903F03701DB062173DB
S214001F000BD402F13800FEF715FAC4E900019389F4
S214001F106381D3892381BDE8F88300200146F4E776
S214001F20C36C01337ED100252B464FF02E08F96B8B
S214001F300A2B31D8C85C202803F1010600F0818006
S214001F40052800F0A180092E05D10B2D9EBF621931
S214001F50013582F80D80802817D99F28C2B203D990
S214001F602032D2B21C2A10D8082E0ED00B2E0CD03F
S214001F708A5D3F2A09D97E2A03D982F080017C290E
S214001F8003D842EA00209E1C80B24FF4697101F02B
S214001F90A9F8002849D10025631900225A73A37EA8
S214001FA0002B5AD1002D4ED06FF00C0504F10D0118
S214001FB008202D1B6B1811F8012B002A46D02E2A5C
S214001FC093B25AD0A3F14102192A04D8FA6B127BB5
S214001FD0104200D020330B73ECE7B9F1000F05D1A7
S214001FE000F520539BB2B3F5006F0BD305F11A0131
S214001FF0C5F1FF02214440EA0940FEF73CFA48B129
S2140020000544002002368146D8F80C30985B00283C
S214002010E3D12846B9F1000F18BF0020231800228C
S2140020209A7680E7B1463546EEE705F10D01C5F133
S2140020300C022144FEF71FFA0028ACD005443346B4
S21400204075E7334674E73F23A37601232344002233
S2140020509A76FB6B1B7B03B96373FB6BDA7A02F031
S2140020603F02227303F11C00FEF762F90022206093
S2140020706260DA8A62811B8B4CE710201346AAE75F
S2140020803F23A376012530E7092E4FF0E5007FF4C5
S21400209064AF5AE71FB5CDE9001003A814460391B4
S2140020A0FEF7A1F9002815DB0B4A52F820300BB1D9
S2140020B000211970019B0BB10021197042F82030E5
S2140020C02CB1002201A96846FEF7BEFD0446204654
S2140020D004B010BD0B24FAE7D41100202DE9F04718
S2140020E098B0904601910546002800F0528102F013
S2140020F03F06324603A901A8FEF7A6FD002840F0D9
S2140021004681039B04934FF48C6000F0BEFF0746A5
S214002110002800F04081039B0199D86000F500720A
S2140021201A6104A8FFF704FD044620B99DF95B3048
S214002130002BB8BF062418F01C0F00F0CD80002C32
S2140021404CD0042C40D104A8FFF7FEFA0446002821
S2140021503AD146F00806039B1A78042A40F083809A
S21400216018692B602946FFF7C5FC039B18691E22D9
S214002170002102300AF08CFB039C206900211A2201
S21400218026300AF085FB236920221A71246901F0A3
S21400219093FB083401462046FEF7D0F8039B1B69E4
S2140021A0012283F8212004A8FFF73EF9044658B917
S2140021B0A96801B302462846FEF70DFCAB68039AF1
S2140021C0013B04465361B4B1384600F060FF0CB1E1
S2140021D000232B60204618B0BDE8F0879DF8163027
S2140021E013F0110F40F0848018F0040F40F0C980FF
S2140021F018F0080FAFD1039A3107936B1399AB64AD
S214002200E964107848BF46F04006042872D1069B61
S2140022102B62089B9DF81710106923F0FF030B43F1
S2140022206B62179BAB622946FFF764FCDDF80CA0D7
S214002230C5F800A0BAF80630AB80002400220023C0
S21400224005F15008C5E90E2385F830604FF400729A
S21400225085F831406C64214640460AF019FBB20608
S21400226053D40024B0E701F027FB014600901398F2
S2140022700E30FEF763F8139800991630FEF75EF8F6
S214002280039C13992078FFF74AFC2023CB721399FE
S214002290002280462046FEF773F8139B00221A772A
S2140022A05A779A77DA77039B0121D970B8F1000F35
S2140022B0A1D0414604A8D3F83890FEF78CFB04461C
S2140022C0002881D103984946FEF755F9039B04463A
S2140022D008F1FF30586176E7002C7FF475AF9DF863
S2140022E01630DC064FD418F0020F84D0D80782D5FB
S2140022F0072469E7FFF713FCA86001F11C00FEF74E
S21400230017F8002328616B6190E7D5E9046956EA5F
S2140023100903A6D0BAF80AA0A968C5E90E694FEA6B
S2140023204A2AB24574EB09031BD300242964002C07
S2140023307FF44AAFC6F30803002B92D0039C2046D6
S214002340FEF713F808B3760A46EAC95682196A6495
S214002350607801234146FDF783FF041E18BF012461
S21400236032E72846FEF7BFF9B6EB0A0669F1000920
S2140023700128014603D9431CD3D10124D6E7022401
S214002380D4E7082420E704241EE702241CE70446BA
S2140023901EE709241EE711241CE72DE9F04F87B03D
S2140023A017460193019A00238946136005A904463F
S2140023B0FEF72EF8064680BB94F831606EBB94F8A4
S2140023C0303013F00103029300F0A980D4E9043200
S2140023D0D4E90E011B1A62EB0102BB4272F1000245
S2140023E038BF1F4604F1500ABFB1D4E90E10C1F33E
S2140023F00803002B40F08580059B5B895A1E4B0A1C
S21400240043EAC05313401BD151EA000209D1A06829
S21400241001280DD8022684F83160304607B0BDE8A2
S214002420F08F216C03932046FEF75DF9039BEFE7E0
S214002430421C04D10123029E84F83130EDE720646B
S214002440DDF814B0216C03935846FDF78EFF002884
S214002450E0D0039BB7F5007F03EB000831D3BBF851
S2140024600A209BF8010003EB572191424FEA5725BB
S21400247088BFD51AEBB242464946FDF7F1FE002862
S214002480D8D194F93030002B0BDA606CA0EB080042
S214002490A84206D24FF40072514609EB40200AF0DB
S2140024A0CFF96D02019B019A1B682B441360D4E997
S2140024B00E237F1BA944551943F10003C4E90E53AC
S2140024C092E7626C42451AD094F93030002B0DDA50
S2140024D09BF8010001235146FDF7E2FE0028A9D132
S2140024E094F8303003F07F0384F8303005980123E9
S2140024F0407842465146FDF7B3FE00289AD1C4F80C
S2140025004480A16BC1F30801C1F50075BD4228BF28
S2140025103D462A46514448460AF092F9C2E7072645
S2140025207BE72DE9F04F85B016460193019A00230C
S2140025300F46136003A90446FDF76AFF054690BBE5
S21400254094F831507DBB94F830309A0740F1D18032
S214002550039B1B78042B03D0A36BF34228BFDE43F8
S21400256004F15009CEB1D4E90E10C1F30803002BD4
S21400257040F0AB80039B5A894B0A013A43EAC053AA
S2140025801340009323D151EA000310D1A06880B90C
S21400259001462046FEF728FD58B994F8303043F03F
S2140025A0400384F83030284605B0BDE8F08F216C33
S2140025B0EFE7012803D1022584F83150F3E7431CE6
S2140025C001D10125F8E7A368206403B9A06094F957
S2140025D03030002B0EDA0398626C407801234946AF
S2140025E0FDF75EFE0028ECD194F8303003F07F0350
S2140025F084F83030DDF80CA0216C5046FDF7B5FEAF
S2140026000028D8D0009BB6F5007F03EB000845D322
S214002610009ABAF80A309AF8010002EB56229A425B
S21400262088BF009A4FEA562B88BFA3EB020B5FFACF
S2140026308BF342463946FDF733FE0028C1D1616C64
S214002640A1EB080159450CD24FF4007207EB41216B
S21400265048460AF0F5F894F8303003F07F0384F823
S21400266030304FEA4B2B019B019A1B685B4413608A
S214002670D4E90E23D4E904011BEB020243F1000364
S214002680904271EB030C3CBF10461946C4E90E237A
S214002690C4E90401A6EB0B065F4463E7636C43459D
S2140026A011D0D4E90E20216963698A4270EB0303D6
S2140026B009D29AF80100012342464946FDF7D0FDAB
S2140026C000287FF47EAFC4F84480A06BC0F30800F7
S2140026D0C0F5007BB34528BFB3465A463946484442
S2140026E00AF0AEF894F8303063F07F0384F83030A8
S2140026F0B9E7072557E7F0B597B001A90546FDF7F6
S21400270087FE044690BB95F8303013F040042DD079
S2140027101B0610D501986A6C4078012305F150011C
S214002720FDF7BEFD002840F0AC8095F8303003F091
S2140027307F0385F8303001F0BFF80746019803782C
S214002740042B75D12846FEF7C4F9044670B9296CE7
S2140027504FF0FF322846FEF726F9044630B94FF40C
S2140027608C6000F092FC064618B91124204617B07B
S214002770F0BD019BA96AD86000F500721A612B684B
S21400278002932B6A04936B6A8DF80F3002A823F02D
S214002790FF03CDE9063409941591FEF73AF804468E
S2140027A0002841D102A8FEF7C4FD044600283BD10C
S2140027B0019B19690A7942F020020A71EA791969BF
S2140027C042F0010281F821201869A9683430FDF72B
S2140027D0B5FD019B1869D5E904233830FDF7B6FD31
S2140027E0019B1869D5E904232830FDF7AFFD019B4E
S2140027F0186939460C30FDF7A1FD019B1A6954751E
S2140028001B6902A81C745C749C74DC74FEF70CFED6
S214002810044648B90198FEF7CBF995F8303023F016
S2140028204003044685F83030304600F030FC9DE723
S214002830A96CFDF7A0FE0446002897D1EE6CF37A4B
S21400284043F02003F372AA6828683146FDF798FD26
S214002850296906F11C00FDF771FD394606F11600E0
S214002860FDF76CFD0198B4740123F474C370FEF791
S2140028709FF995F8303023F04003044685F8303051
S21400288074E7012472E713B50446FFF734FF28B94E
S21400289001A92046FDF7BCFD00B9206002B010BDBE
S2140028A02DE9F04F85B003A9044615461F46FDF7EF
S2140028B0AFFD0646002840F0C78094F83160002E31
S2140028C040F0C280039B1B78042B56D003990B78EC
S2140028D0042B5CD1D4E90402A84272EB070307D2AA
S2140028E094F8303003F00203002B04BF0546174669
S2140028F04FF000084FF0000955EA0700D4E90E3201
S214002900C4E90E894DD10025D4E90E32D4E904017C
S214002910984291413CBFC4E9043294F83020C3F396
S21400292008033CBF42F0400284F83020002B00F041
S2140029308B80626CAA4200F0878094F93030002BBE
S21400294004F150010EDA0398019140780123FDF757
S214002950A7FC00287ED194F83030019903F07F035D
S21400296084F830300398012340782A46FDF778FC37
S214002970064600286ED1656466E0216C4FF0FF3293
S2140029802046FEF710F80028A0D006465CE04FF080
S214002990FF320023AA4273EB07003CBF15461F46D2
S2140029A098E7B1F80A8053EA02014FEA482840D077
S2140029B013F1FF3942F1FF3A681E67F10001424603
S2140029C0002309F063FD002301908B4642464846EB
S2140029D0514609F05BFD019B83427BEB010328D344
S2140029E0C8F1000202EA0902C4E90E2AAD1A216CF7
S2140029F067EB0A07002986D04FF00009A84579EB57
S214002A000702D4E90E302AD3D4E90E325B1947EB1D
S214002A100202C4E90E32C5F30803002B3FF473AF7D
S214002A200398FDF7A2FC60B16D0A45EAC755054458
S214002A306AE7A16889B92046FEF7D6FA012801465A
S214002A4006D1022684F83160304605B0BDE8F08F26
S214002A50421C01D10126F5E7A0602164CAE7B5EB68
S214002A60080594F830E067F1000718EB030340F11F
S214002A7000001EF0020FC4E90E3014D06269019205
S214002A8022699A42019A82413EBF4EF0400EC4E946
S214002A90043084F830E02046FEF7A6FA014630B946
S214002AA005460746B0E72046FDF71DFE01464B1CCF
S214002AB0D0D00129C5D9039BDB698B42C1D92164DB
S214002AC09CE77FB504460191002850D0002203A958
S214002AD001A8FEF7B9F8054600283AD1039B236003
S214002AE04FF48C6000F0D1FA0646002841D0039BD4
S214002AF00199D86000F500721A612046FFF718F8B1
S214002B00054600BB94F94B30002B14DBA379DB069B
S214002B1029D5039A1078042820D1A3682362236954
S214002B20E179106923F0FF030B436362E36CA36251
S214002B302146FEF7DFFF039BDB88A38000212046AB
S214002B40FDF767FE0546304600F0A1FA042D0CD0CE
S214002B500DB100232360284604B070BDE16BFEF77C
S214002B60DEFFA060E7E70525EDE70525F1E7092587
S214002B70F1E71125EFE713B501A90446FDF748FC78
S214002B8000B9206002B010BD2DE9F3410F4601A93F
S214002B900646FDF73DFC044628B947B901463046CF
S214002BA0FDF737FE0446204602B0BDE8F0814FF43C
S214002BB08C6000F06AFA0546E0B1019B00F50072F1
S214002BC0D8601A613046FEF75FFC10F0FB0804463A
S214002BD00CD139463046FFF749F941463046FEF7F4
S214002BE0F4FA0428044614BF04460024284600F0DD
S214002BF04EFAD8E71124D6E770B5B8B00222019095
S214002C0003A901A8FEF720F80446F8B9039B109321
S214002C104FF48C6000F039FA0546002864D0039B18
S214002C200199D86000F500721A6110A8FEF780FFBF
S214002C30044640B99DF98B30002B53DB9DF8463097
S214002C40DA0706D50724284600F021FA204638B0D1
S214002C5070BD039B04931878042814D1186904A93E
S214002C60FEF748FF069E9DF84630DB0610D410A8F7
S214002C70FEF731FB04460028E5D156BB0398FDF766
S214002C8097FF0446DFE71F99FEF749FF0646EAE787
S214002C90039B249326961B78042B08BFDDE90823A4
S214002CA04FF0000108BFCDE9282324A804BF9DF8F3
S214002CB017308DF89730FDF7ACFD04460028C2D1DA
S214002CC024A8FEF7E1FB04460028BBD00428BAD1AE
S214002CD0CDE70246314604A8FDF77DFE04460028EF
S214002CE0B1D1CBE70624AEE71124AFE7F0B5A5B027
S214002CF00222019003A901A8FDF7A6FF0446054697
S214002D00002840F09A80039B10934FF48C6000F0EC
S214002D10BCF90646002800F0B080039B0199D860F5
S214002D2000F500721A6110A8FEF702FF044600289C
S214002D3000F0A18004287DD1039B0493294604A8B3
S214002D40FEF752F9054600287AD001287AD0431CAF
S214002D505C425C4100F0B0FD0746002C40F08580E8
S214002D6003982946FDF7CCFE044600287DD103983B
S214002D700278042A2AD04FF02032C2630264C0F8D8
S214002D8043202E2280F83C20102280F84720394627
S214002D905230FDF7D3FA03982A4600F13C01FDF7BE
S214002DA0EFFA039800F15C0300F13C011A4651F873
S214002DB0044B42F8044B9942F9D12E23129A80F81C
S214002DC05D30FDF7DDFA039B0122DA7010A8FEF7EE
S214002DD0BBFC0446002848D1039B1A78042A33D14A
S214002DE0186939460C30FDF7A9FA039B186929467D
S214002DF03430FDF7A3FA039B598918694902383025
S214002E00FDF79CFA039B5989186949022830FDF79B
S214002E1095FA039B1A69032182F821101B69102278
S214002E201A7110A8FEF700FB044618B90398FDF7C0
S214002E30BFFE0446304600F02AF9204625B0F0BD15
S214002E40072487E7022485E71F9839461630FDF7E2
S214002E5075FA2A461F990398FDF792FA1F9B1022CF
S214002E60DA72039B0122DA70E0E70022294604A802
S214002E70FDF7B1FDDEE70824DCE71124DDE7F0B559
S214002E80BDB0CDE900106846FDF7ADFA022203A9F1
S214002E9001A8FDF7D9FE0446002840D1039B1493F1
S214002EA04FF48C6000F0F1F80546002800F0EB8047
S214002EB0039B0199D86000F5007214AE1A61304683
S214002EC0FEF736FE044638BB9DF89B3013F0A00F85
S214002ED040F0D580039B009F1A78042A66D11B69B0
S214002EE004AC03F1400C18685968224603C2083344
S214002EF063451446F7D15022314628A809F0A0FCB5
S214002F00394628A8FEF714FE044600284BD12A9A14
S214002F10169B9A4206D00824284600F0B8F82046A9
S214002F203DB0F0BD349A209B9A42F4D128A8FEF713
S214002F300BFC04460028EFD1039B1B6993F801E0C5
S214002F4093F823C09C8C04AF3A4603CAB24218607A
S214002F505960174603F10803F6D1039B1B6983F8F3
S214002F6001E0039B1A6982F823C01A6982F824409C
S214002F70240A82F825401A691379D9065CBF43F003
S214002F802003137128A8FEF74FFA04460028C3D181
S214002F903046FEF7A0F904460028BDD10398FDF799
S214002FA007FE0446B8E70428B6D1BFE7239A04AB69
S214002FB002F1200C106851681C4603C408326245B2
S214002FC02346F7D15022314628A809F039FC394665
S214002FD028A8FEF7ADFD044600284CD12A9A169B79
S214002FE09A4298D1349A209B9A4294D128A8FEF708
S214002FF0ABFB044600288FD137990DF11D0301F174
S2140030000D020DF12D0053F8044B42F8044B834299
S214003010F9D1188810809B7893709DF81B30039C1C
S214003020DA0658BF43F020030127CB72E770CB7A4D
S214003030DB06ADD5169A2A9B9A42A9D02078FEF7D1
S2140030406EFD01462046FDF790F90146C8B12046C0
S214003050FDF791FA044600287FF45EAF039890F8D7
S2140030605D302E2B94D12A9A00F15C01FDF788F989
S214003070039BDF708CE704287FF44EAFB6E7062488
S2140030804AE7022448E7112449E709F0B9BB09F0EA
S214003090BFBB00007F28F0B501D880B2F0BDB0F508
S2140030A0803F16D2B1F5697F13D10C4E83B241F63C
S2140030B0DD4410200021621A01EB5202950036F81A
S2140030C022709F4207D02CBF144611460138F2D119
S2140030D0E4E70020E2E7024BE85ADFE784700100ED
S2140030E0867001007F28F0B515D9B1F5697F11D13A
S2140030F00B4E102241F6DD440021631A01EB530308
S2140031009D0036F82370874206D034BF19461C4609
S214003110013AF2D10020F0BD024BE85AFBE700BFAF
S2140031200CFD00000EFD0000B0F5803FF0B522D289
S2140031301F4A204983B2B0F5805F28BF0A46141D97
S21400314034F8042C2146AAB1934213D334F8025C17
S2140031502E0AEFB252FA85F5A84222DA082E09D8CE
S214003160DFE806F0050A10121416181A1C00801A5A
S21400317034F810301846F0BD981A00F001001B1AFB
S2140031809BB2F7E7103BFBE7203BF9E7303BF7E75E
S2140031901A3BF5E70833F3E7503BF1E7A3F5E353B3
S2140031A0EEE70434002ECBD101EB4702C7E700BFA1
S2140031B05EFA000050FC000010B5446A14F00104EA
S2140031C0FBD1072902D1436A9B07FCD48260C368FF
S2140031D023F4403300293FD037293AD0182907D89E
S2140031E0214ACA40D20734D407292CD002292DD030
S2140031F029292ED008292FD84FF49472CA4012F0ED
S214003200010F14BF4FF4003200221343082914BFE5
S21400321000224FF4C01223F46013072943EA020386
S2140032201CD00C2908BF4FF40014234323F07F530F
S21400323043EA0161C160036BDA07FCD50122036B28
S214003240DB070ED410BD4FF44032DEE74FF4803279
S214003250DBE74FF40032D8E70022D6E74FF400143D
S214003260E3E70263EBE700BF40200201F7B5044640
S2140032700D4672480121164601F0EAFE704BC4F86E
S2140032801C380123C4F820383F23C4F824384FF4F0
S2140032900863C4F800386B4BC4F804386A4BC4F8AB
S2140032A008386A4BC4F80C38694BC4F81038A3F5D4
S2140032B04433C4F81438674BC4F81838664B636355
S2140032C0304602F0D7FBB0FBF5F0000240F60253A2
S2140032D0002240F00500E0621146A3622046FFF798
S2140032E06BFF4FF4807208212569FFF765FF23699D
S2140032F09D425A4D36D1AB786FF3C303AB70AA78B4
S21400330023696FF3041212F00806AA704DD000224B
S21400331037212046FFF750FF002229212669FFF7B4
S2140033204BFF23699E420DD04D4E2369002B26DAB3
S214003330AB7813F0200F2B780CBF0222032262F327
S21400334002032B70002202212046FFF735FF0022E1
S2140033500321FFF731FF23692A681B0C63F3D202AF
S2140033602A6052E0236B99034FD4236B1A034CD484
S2140033702369DB0549D5AB7843F00803BEE7002296
S21400338037212046FFF718FF32462921FFF714FFA2
S2140033902369AA789B0F63F345122369AA701B0E54
S2140033A0D2B263F38612AA70BFE7324637212046B0
S2140033B0FFF702FF324629212769FFF7FDFE236942
S2140033C09F421ED0274E2369002BBBDB00223721ED
S2140033D02046FFF7F1FE4FF400222921FFF7ECFE0E
S2140033E02369AA789B0F63F345122369AA702A689B
S2140033F09B0803F4800343F00103324013432B6021
S214003400E1E72B7866F302032B702A68C2F3CF023B
S214003410204612040D210192FFF7CEFE019A0721E5
S214003420FFF7CAFE019A3721FFF7C6FE02220621E1
S21400343003B0BDE8F040FFF7BFBE00BF0045020086
S21400344001030001201CBA7FFA23050000000418BF
S214003450021004080010021833003A00DC110020A5
S21400346000000851F8FFBFFFC36A43F47E03C3623F
S214003470012303632023036302230363436843F4A7
S214003480007343600E4B8160C360036BDB07FCD5A3
S21400349001230363036B9906FCD52023036302F51F
S2140034A00073016A42F8041B9342FAD1036B9A0731
S2140034B0FCD50222036B9B0700D470470263F9E732
S2140034C010002211C36A43F47E03C3620123036320
S2140034D01023036302230363436843F400734360CB
S2140034E00E4B8160C360036BDB07FCD501230363CF
S2140034F0036BD906FCD51023036302F5007352F85C
S214003500041B01629342FAD1036B9A07FCD5022290
S214003510036B9B0700D470470263F9E7000022188C
S214003520024B187800F00700704700BFDC1100203F
S21400353038B5144809F0F6FA00F0C4FA044610B19B
S214003540114809F0EFFA1148114D09F0EBFA4FF463
S2140035502C7009F055F9286010B90E4809F0E2FA07
S21400356008F044FC286800F5207000F0E1FB00F04D
S21400357075F910B1084809F0D5FA084809F0D2FAEA
S214003580204638BDFCE3010036E401005EE401009D
S214003590E011002076E401009DE40100CEE4010085
S2140035A013B504460C48019109F0BCFAE26863685A
S2140035B09B1A012B0ADC019902D1A36853F822104A
S2140035C0064802B0BDE8104009F010BA044802B040
S2140035D0BDE8104009F0A6BAE5E401000DE50100DB
S2140035E0FCE4010013B504460C48019109F09AFA70
S2140035F0E26863689B1A012B0ADC019902D1A36872
S21400360053F82210064802B0BDE8104009F0EEB9A3
S214003610044802B0BDE8104009F084BA1CE5010079
S2140036200DE5010032E5010038B504460E4809F004
S21400363079FAE26863689B1A022B10D1A3680B48DC
S21400364053F8224003EB820321465D682A4609F0C0
S214003650CDF929462046BDE8384000F0C9B9BDE896
S2140036603840034809F05EBA42E5010057E501001C
S2140036706BE5010013B504460C48019109F052FAB7
S214003680E36862680199D01A9B000022904207DC2A
S214003690074809F0ABF902B0BDE8104000F0F2B9F7
S2140036A0A1680132C9580433F0E700BF90E5010075
S2140036B017E5010013B504460C48019109F032FAEB
S2140036C0E36862680199D01A9B000022904207DCEA
S2140036D0074809F08BF902B0BDE8104000F0E6B9E3
S2140036E0A1680132C9580433F0E700BFA3E5010022
S2140036F017E5010010B504460C4809F013FAE26815
S21400370063689B1A012B04D0BDE81040084809F0F6
S21400371009BAA368074853F82240214609F066F91B
S2140037202046BDE8104000F01DBA00BFB8E5010015
S214003730C9E5010017E5010013B504460C480191E0
S21400374009F0F0F9E36862680199D01A9B0000223C
S214003750904207DC074809F049F902B0BDE810407E
S21400376000F0D8B9A1680132C9580433F0E700BFA9
S214003770DFE5010017E5010010B504460C4809F026
S214003780D1F9E26863689B1A012B04D0BDE81040AB
S214003790084809F0C7B9A368074853F822402146ED
S2140037A009F024F92046BDE8104000F029BA00BF11
S2140037B0EFE50100FFE5010012E6010010B5044642
S2140037C00F4809F0AFF9E26863689B1A012B04D032
S2140037D0BDE810400B4809F0A5B9A3680A4853F89D
S2140037E02240214609F002F924B9BDE810400748F6
S2140037F009F0FCB82046BDE8104000F01DBA00BF36
S2140038001CE601002FE6010044E6010053E6010035
S21400381038B504460E4809F085F9E26863689B1AD5
S214003820022B10D1A3680B4853F8224003EB820307
S21400383021465D682A4609F0D9F829462046BDE8A3
S214003840384000F017BABDE83840034809F06AB9B6
S2140038506AE601007AE601009BE6010008B5074B20
S2140038601968074B186806F0F1FB20B9054840F2C6
S2140038705B2101F05DF8002008BD00BF9410002019
S214003880A4100020BFE6010008B508F031F9FFF7E4
S2140038904FFE10B1034809F045F908F036F900204C
S2140038A008BD00BF66E80100024A136801331360D2
S2140038B0704700BFEC1700200048704700004138F2
S2140038C038B504464518AC4200D138BD14F8010B93
S2140038D009F0A4F8F7E7000010B52048012101F030
S2140038E0B7FB042210460123072103F033FA1C4BD2
S2140038F08022C3F8CC200122104600230A2103F0C0
S21400390029FA002305220F21042003F023FA0123BD
S21400391005220E21042003F01DFA0021084601238B
S214003920052203F017FA012319460522002003F0AA
S21400393011FA012305220221002003F00BFA0123CD
S21400394005220321002003F005FABDE810400023FD
S21400395005220921012003F0FDB900BF00550A0029
S214003960008008462DE9F04395B0014605466846B6
S214003970FFF7A7F8044670BB194FDFF8708007F111
S2140039801A0617496846FFF7FFF8044600BBBC7ED8
S214003990F4B13B7BDB0615D5284609F014FA32460F
S2140039A010498146281809F0CFF931460E4809F02B
S2140039B01DF800212846FFF7D5FF044640B905F854
S2140039C00900DEE732462946404609F00FF8D8E7F8
S2140039D06846FFF7D0F8204615B0BDE8F08300BF74
S2140039E0C816002081E8010085E801008BE8010088
S2140039F0F7B5054608460E4609F0E5F907461B48A2
S214003A0001F000F933221A482946FEF767FB022226
S214003A10044600231648FEF743FF04BB144801ABD8
S214003A203A463146FEF77DFD20B9114800220023B4
S214003A30FEF736FF0F4B10490D480A22FEF7ADFC85
S214003A40044618B101460D4808F0D0FF0848FEF7B6
S214003A501AFF064801F0D6F8204603B0F0BD22460D
S214003A602946074808F0C2FFF3E700BF20EB010035
S214003A7078140020201400202414002092E801006E
S214003A80A4E8010010B5064906480022FEF702FB2E
S214003A90044618B10146044808F0A8FF204610BDA9
S214003AA00DF70100E4110020C1E8010008B5034944
S214003AB003480022FEF7EEFA08BD00BF0DF701002E
S214003AC0E411002038B50D480D4D012101F0C0FA73
S214003AD0FFF702FF0B490C480022FEF7DBFA04460C
S214003AE038B10146094808F081FF00232B602046C4
S214003AF038BD074809F016F80123F7E740410500EE
S214003B00E81700200DF70100E4110020C1E80100CD
S214003B10D7E8010010B50E49002009F071F90D4BE9
S214003B201B6804461BB9FFF7CDFF002010BD28B167
S214003B30094909F036F9B0FA80F4640907490848DB
S214003B4009F039F921460648FFF70CFFEDE700BFFC
S214003B503FFA0000E8170020ECE801000DF701002E
S214003B60F017002037B5014648B91C4808F0DAFFC0
S214003B701B4808F03BFF0124204603B030BD0190EF
S214003B8001221848FEF7AAFA0199044600BB164817
S214003B90164D08F02BFF164808F0C4FF002200233D
S214003BA01048FEF77DFE13490E482B465022FEF7BE
S214003BB0F4FB044638B929680E48FFF781FE094829
S214003BC0FEF761FED8E701460B4808F00FFFF6E760
S214003BD002460A4808F00AFFCEE700BFEFE80100F9
S214003BE005E901007814002017E9010020140020E0
S214003BF02BE901002414002092E80100A4E801004B
S214003C0038B5054638B9094808F08CFF084808F06A
S214003C10EDFE204638BDFEF7EFFF04460028F8D03C
S214003C2002462946034808F0E1FEF2E755E901009E
S214003C306BE901007CE9010038B5054640B90A4841
S214003C4008F070FF094808F06DFF0124204638BDD3
S214003C50FFF74CF804460028F8D0024629460448E8
S214003C6008F0C4FEF2E700BF94E901002FE6010069
S214003C70B5E9010070B50E46054600B129B90948F8
S214003C8008F0B4FE0124204670BDFFF7F8F804469D
S214003C900028F8D0034632462946034808F0A6FE18
S214003CA0F1E700BFD0E90100E6E9010010B51D48C4
S214003CB086B0012101F0CCF900241F2321468DF89F
S214003CC0063019488DF80440FF23CDE903448DF8EB
S214003CD005408DF811308DF807408DF808408DF8B6
S214003CE00940059400F074FC01238DF80E30032380
S214003CF08DF807008DF80D3020468D238DF8103096
S214003D008DF812408DF80F4000F00EFD01A98DF8D9
S214003D100600064800F07CFC044803A900F0E4FB1B
S214003D2006B010BD004209000024F4000020084040
S214003D3000B58FB00AAB089301220023CDE9063206
S214003D400A214FF48072CDE9032119220292064A15
S214003D500192152200920549054A0648059305F08A
S214003D6083F80FB05DF804FBF018002001EA0100AC
S214003D70713F0000541800202DE9F04F8BB0CDE9BC
S214003D8000120025DFF8E4910695ADF81C50089562
S214003D90ADF82450059500F1FF3A05244FF00008D1
S214003DA01AF8011F704808F0EFFF0646204608F094
S214003DB0CDF902460B46404649460AF06DFB0246E0
S214003DC00B46CDE90223684BF01A08F0BFF9DDE98F
S214003DD002230BF06FFB064628460F4608F0B6F99E
S214003DE002460B463046394608F064F808F018FAE2
S214003DF0013C0546D4D20624DFF870B100272646DB
S214003E004FF0000A0AAAB4FBF6F306FB134313446A
S214003E10554813F8101C08F0B7FF8046C4F10B0095
S214003E2008F094F902460B46504659460AF034FB11
S214003E3002460B46CDE902234B4BA8EB030008F0E5
S214003E4085F9DDE902230BF035FB804638468946C6
S214003E5008F07CF902460B464046494608F02AF828
S214003E6008F0DEF901340C2C0746CBD1DFF8F8B0A9
S214003E7000264FF0060A0AAAB4FBFAF30AFB13431D
S214003E801344584613F8081C08F07EFF8046C4F119
S214003E90110008F05BF902460B46002033490AF091
S214003EA0FBFA02460B46CDE902232F4BA8EB030094
S214003EB008F04CF9DDE902230BF0FCFA80463046A8
S214003EC0894608F043F902460B464046494607F045
S214003ED0F1FF08F0A5F90134122C0646CBD14FF0BD
S214003EE0000A4FF0060B0AAAB4FBFBF30BFB1343C6
S214003EF013441D4813F8141C08F046FF8046C4F10E
S214003F00150008F023F902460B46002017490AF070
S214003F10C3FA02460B46CDE90223134BA8EB030077
S214003F2008F014F9DDE902230BF0C4FA8046504687
S214003F30894608F00BF902460B464046494607F00C
S214003F40B9FF08F06DF90134162C8246CBD1DDE9B5
S214003F5000231C2101FB0231C1E95B57C1E95D600A
S214003F600BB0BDE8F08F00BF0BEA01000000304048
S214003F702DE9F04F2DED028B0021AFB080F82C100C
S214003F80DFF8A8810791044679220FA80E9108F061
S214003F907FFC0123C8F80030FFF788FED8F80050F1
S214003FA0022D17D0032D32D0012DF9D15648A56227
S214003FB0006807AB2A4608A906F058FE0028EDD18F
S214003FC09DF820300A2BE9D11823A36284F82C50E0
S214003FD0022316E04C4807AB0068182208A906F032
S214003FE045FE0028DAD1079B2EAA134413F8992C15
S214003FF00A2A09D113F89A3C0D2BCFD184F82C50FD
S2140040000323C8F80030C9E70123A362F9E73F4B52
S214004010DFF81C91DA689A6C3D4DC9F800204FF025
S214004020010AC3F808A03B4BD5E9A00193ED008A2E
S2140040300A22002308F02AFA24265643364BAB51B0
S2140040400DF1200E1746BEE80F0005EB060B0436F2
S2140040502E44B446ACE80F009EE803004CF8040B70
S214004060D9F80030ACF800102A46CBF82030394694
S2140040708BED078A08A8FFF77FFEFDEEC87AD9F811
S214004080003017EE90BA1C22CDE904B302FB0757A6
S2140040907D21D7F878310393D7F874310293D7F897
S2140040A070310193D7F86C311C4A00930EA81A4B56
S2140040B01B4F08F015FE0EA808F085FE0EA9024656
S2140040C0386806F0BFFDD9F80030164A1648009644
S2140040D07D21CDE901B3104B08F002FE124808F02E
S2140040E072FE11490246386806F0ACFDD5E9A032EA
S2140040F013EB0A0342F10002C5E9A0321823A362BB
S21400410084F82CA064E700BFA81000200020084018
S214004110F81C002080540020D20296491CEA0100B8
S214004120AC10002036EA0100AC1F0020A81F0020BB
S214004130F01C00207047000030B5124C124B22686D
S214004140124D1A608BB0124B2B60124B009306F088
S21400415041FD2B680293104B0393104B0493104BB6
S21400416005934FF4C8621923CDE9062300213223B4
S214004170CDE9081301906946206805F02DFC0BB0C8
S21400418030BD00BFA4100020585400205454002016
S2140041909810002047EA01003C27002070260020E7
S2140041A03020002008B50421112001F0CFFE0B4876
S2140041B0012100F04DFF0A48022101F0C7FE094820
S2140041C0022101F0C3FE0848022101F0BFFE0748A5
S2140041D0022101F0BBFE002008BD00BF30053E00F6
S2140041E002001E0003002000040022000500240038
S2140041F008B54FF0804301225A6403F564231D4935
S214004200D3F8B02042F00102C3F8B020D3F8E02083
S21400421042F00802C3F8E0204A6B42F480524A6338
S214004220D3F8E02022F00802C3F8E020D3F8B0204C
S21400423022F00102C3F8B0200F4AD2F8A43143F4AA
S214004240F843C2F8A43106F071FC00F0B9FA06F0A3
S21400425007FC06F029FC06F055FCFFF7A3FF06F066
S21400426015FC00F09FFA03F02DF8BDE8084003F0B7
S2140042702BB800BF0040054000300E4003F060B889
S21400428008B500F089FD00F097F8BDE8084000F09A
S214004290A5B808B500F067FA07F07AF906F03CFD15
S2140042A000F072F8BDE80840FFF746BF7047704759
S2140042B030B5164C0FCC93B00BAD0FC594E8070085
S2140042C04FF4164385E807000D931149114B124829
S2140042D0CDE906130C340023CDE908030A9394E8CD
S2140042E00F0002AD85E80F000C4B00930C4806ABA0
S2140042F00BAA294606F0BEFF044618B109489621C7
S21400430000F016FB204613B030BD00BF88EA01005F
S2140043100000014000720400040A040BFC2900207F
S214004320842B002059EA010070B5134C0FCC92B0D4
S2140043300BAD0FC594E8070004F11C0685E80700DE
S2140043400FCE06AD0FC5303433682B6094E80F00EF
S21400435002AD85E80F00094B0093094806AB0BAA8F
S214004360294606F087FF044618B10648E02100F00B
S214004370DFFA204612B070BD88EA0100982A0020B5
S214004380A42B002059EA010008B5FFF791FFBDE80D
S2140043900840FFF7C9BF0000014B186807F020B8B7
S2140043A0842B0020FFF7F8BF014B186807F018B8F9
S2140043B0A42B0020FFF7F8BF08B5054800F05EFB09
S2140043C0044800F05BFBBDE80840034800F056BB1D
S2140043D0D8EA0100F0EA010008EB010008B505483C
S2140043E000F00DFC044800F00AFCBDE80840034855
S2140043F000F005BC20EB010038EB010050EB01009B
S214004400344B002AF0B5344D446B08BF1D46334B81
S21400441014BF1026002698420ED003F580639842FB
S21400442039D12F4F062909D8062909D8DFE801F027
S2140044300A152334080841002A4FF3E781293DD0A6
S214004440002324E03B683A6803F4FE4302F00F02C0
S2140044501A433B6803F0F0030BE03B6839683A68A0
S2140044601B0C120C02F0F00203F4FE431343C1F3DC
S214004470034213430BE07B6879687A6803F4FE43D3
S21400448001F00F01194302F0F00242EA0103B340C3
S2140044902C4023434363F0BD7A6879687B68120C2E
S2140044A01B0C03F0F00302F4FE421A43C1F303436D
S2140044B0DFE7BA68BB6802F00F02CBE77B687A6872
S2140044C003F4FE4302F00F0213437A6802F0F00290
S2140044D0CFE700BF0080FFFFFFFF008000200840FE
S2140044E02082E00F1082E00F38B5374B9842054621
S2140044F00C4608D003F58063984204D033484FF446
S214004500547100F015FA0223AB60A1780022284609
S214004510FFF776FF207961786279030243EA016348
S21400452043EA0243E27843EAC203E2790AB143F07F
S2140045300053227A0AB143F00403A2790AB143F089
S2140045400203627A0AB143F00103F328A27806D187
S2140045502AB903299CBF23F0706343F0806351B2ED
S2140045600029ACBF43EA421343F0E0032B616B69BA
S214004570002923F4791323F00703BCBF22F080023E
S2140045801343227843EA4243E27A0AB143F4804373
S2140045906B616B0103F18443A27A9A60EB6FD5F8E6
S2140045A080201A4204D009484FF46E7100F0C0F91A
S2140045B0EB6813F4406F06D0BDE83840034840F27D
S2140045C0B93100F0B5B938BD0020084068EB0100ED
S2140045D0B0F5FA4F10B50C4C38BF4FF4FA40844291
S2140045E028BF044619B9094801F044FA0146601E7E
S2140045F00144A142B1FBF4F028BF00F1FF307F2850
S21400460028BF7F20C0B210BD0024F400604109001E
S21400461070B53D4BCD78984204460E4608D003F55B
S2140046208063984204D039484FF4BD7100F080F999
S214004630002D41D129463648FFF7CAFF05460A2312
S214004640A3603278737843EA0263B278120402F405
S214004650FE022D02134305F4FE451D4333790BB1CC
S21400466045F010052560757901F0E8FE23685D4089
S21400467005F0C0055D40256001F0E4FE23681B06DA
S21400468040D5244B244E2548B44208BF184601F0B6
S214004690F1F91D4B9C42054629D1214801F0EAF963
S2140046A005EB4505B0EB550F2CD2BDE8704017481A
S2140046B04FF4DC7100F03CB9216811F08001BED1E6
S2140046C01348FFF785FFA84204D9104840F2851129
S2140046D000F02EF900214FF4FA40FFF779FFA842C8
S2140046E0ADD20A484FF4C37100F022F9A7E7B442EE
S2140046F001D10C48D2E705484FF4DB7100F018F9F9
S2140047000020CDE770BD00BF0020084068EB010028
S2140047100024F400B900340000240840B800320039
S214004720004209000052090008B528B9074801F000
S214004730A1F9012838BF012000F57420044B00F2CF
S2140047403F20B0FBF3F00138C0B208BD604109005D
S21400475040420F0008B5042201231046194602F015
S214004760F9FA002008BDFFF7F5BF0000012808B5DC
S214004770034608D002280DD009484FF4857100F092
S214004780D7F80E2005E004220721104602F0E2FAD0
S214004790002008BD012304220D210620F6E700BFF5
S2140047A0B4EB010008B50548012100F051FCFFF705
S2140047B0C1FCBDE808400120FFF7D8BF00550A003D
S2140047C00148012100F044BC00550A00FEE7000045
S2140047D008B500F093F8124B12498B4212D3124BD5
S2140047E0124900208B4218D3FBF7DAFC186850F801
S2140047F02240586840F82240013298688242F5D339
S2140048000C33EAE70022F8E71C6844F8220001327D
S2140048105C68A242F8D30833E4E70022F8E700BF5A
S21400482078FB010084FB010084FB010084FB01008F
S2140048300048704700A24A04174AD2F8943003F0A2
S2140048400703023B042B1FD8DFE803F00620031AF9
S2140048500800124B1B680AE0114BFBE79368C3F392
S2140048600443073B072B14D80E4A52F823300A4A53
S214004870D2F80001C0F304200130B3FBF0F070471B
S214004880094B1B685B08F2E7074BE3E74FF400436E
S214004890EDE70023EBE700BF00400E40E0100020ED
S2140048A0D810002010EC0100DC10002008B5FFF73F
S2140048B0C3FF054BD3F80831C3F308230133B0FB1D
S2140048C0F3F0024B186008BD00400E40D4100020E4
S2140048D0014B1868704700BFD8100020054B1860C1
S2140048E0054BD3F8943003F00703022B01D1FFF7F2
S2140048F0DDBF7047D810002000400E40044B054A2C
S2140049009A60D3F8882042F47002C3F88820704773
S21400491000ED00E0000000004FF4004070474FF448
S2140049207A707047014B1868704700BFE01000208F
S214004930FEE700230360704738B504460D4601B114
S21400494018B904483721FFF7F3FF23682B6025606A
S21400495038BD00BF30EC010010B538B132B129B116
S21400496000230139D45C14B90023037010BD8B42B8
S214004970FAD200F8014B0133F4E7034638B10020C1
S2140049801A5C22B1814200D170470130F8E77047C7
S2140049904FF0FF31FFF7F1BF70B50C4616460546DF
S2140049A060B15AB151B1FFF7F3FF844206D9211A1C
S2140049B032462844BDE87040FFF7CEBF70BD000009
S2140049C070B5D0B1C9B10E4E431E013913F8014F70
S2140049D0A25D02F00302012A11F8012FB55C05F072
S2140049E00305204608BF04F12000012D08BF203231
S2140049F0801A01D1002CE9D170BD0120FCE700BF70
S214004A0020F901001FB5044650B1684604F0B0F91D
S214004A1020709DF80000003818BF012004B010BDBB
S214004A200120FBE71FB5144652B16A4604F06EF942
S214004A3020609DF80000003818BF012004B010BDAB
S214004A400120FBE71FB56B4604F0BEF99DF8000099
S214004A50003818BF012005B05DF804FB05490A6858
S214004A601318054883428CBF4FF0FF320B60104688
S214004A70704700BFE410002000000820436803B120
S214004A80184722207047436903B11847FF20704734
S214004A90082838B505460C4604D84FF6FF73CB40B9
S214004AA0DB0704D4084840F2CF31FFF741FF30233C
S214004AB01C2113FB051101F1067101F5004104EB01
S214004AC0C104A400206838BD7FEC010038B50D682D
S214004AD02B78022B0C460CD069792879FFF7D8FF83
S214004AE0B0FA80F0400928702046BDE8384007F04C
S214004AF0A9B938BD37B5046801210546164800F047
S214004B00A7FA002361792079012202F023F961795E
S214004B102079FFF7BDFFB0FA80F35B092370A37915
S214004B20022B15D100F038F92A460C49607900F0BE
S214004B305DF9FF28054603D109484F21FFF7F8FE27
S214004B400123617920792A46CDE9003302F098F8EE
S214004B50002003B030BD00BF00550A00CD4A00005B
S214004B60CDEC010003681878704710B50468237808
S214004B70022B15D061792079FFF78AFFA279012AE6
S214004B8015D10038638818BF012040EA430363F05C
S214004B903F039BB24FF6E0718B4202D122706380D6
S214004BA010BD4FF6DF729342F9D10022F6E7002AD5
S214004BB0F6D1B0FA80F040092070F1E703681A7861
S214004BC0022A03D100225A80FFF794BF704713B51C
S214004BD004682378022B10D0A379022B0BD16079BE
S214004BE0002100F0F1F8627920790023CDE9003346
S214004BF0114602F045F80223237002B010BDD0E93A
S214004C00000318470369006818470000082838B5ED
S214004C1004460D4604D84FF6FF73CB40DB0704D49A
S214004C20084840F2FE31FFF783FE30230C2013FBCA
S214004C30040000F18840012100F5082001FA05F57E
S214004C40056038BD7FEC0100082838B504460D46DF
S214004C5004D84FF6FF73CB40DB0704D4084840F275
S214004C602D41FFF765FE30230C2013FB040000F1F6
S214004C708C40012100F5082001FA05F5056038BDD5
S214004C807FEC010010B501210446094800F0E0F968
S214004C900848012100F0DCF9A37820786178B3FA9F
S214004CA083F35B09042202F055F8002010BD00BF14
S214004CB04041050000550A000346007859789B7865
S214004CC00BB9FFF7A3BFFFF7BFBF034600785978BD
S214004CD09B780BB9FFF7B8BFFFF798BF38B50478D5
S214004CE04578082C04D84FF6FF73EB40DB0704D456
S214004CF007484FF48961FFF71BFE3023634303F137
S214004D008043012203F50823AA409A6138BD00BFFC
S214004D107FEC010070B506784478082E054604D866
S214004D204FF6FF72E240D30704D40C484FF4836179
S214004D30FFF7FEFD30230C2213FB062303F1067358
S214004D4003F5004304EBC304A400AB782068C0B2AC
S214004D5013B9B0FA80F0400970BD00BF7FEC0100C7
S214004D6070B50C4E0446012504B970BD94FAA4F043
S214004D70B0FA80F006EB001205FA00F324EA03040A
S214004D805368002BF0D0117B11B191689847EBE780
S214004D909847E9E7C42B002008B50D2001F076FB04
S214004DA028B1084B4FF40052C3F880211A60032044
S214004DB001F06CFB20B1034B0822C3F880211A6077
S214004DC008BD00BF00E100E038B505460C4601F01E
S214004DD03CFB054B03EB051300225C601A73BDE831
S214004DE0384001F038BB00BFC42B0020F8B505469C
S214004DF00F46164601F029FB104B05F0FC02D3F8CF
S214004E0028140023EC1804F00304144321FA04FCCD
S214004E101CF0010F07D00133042BF3D1FF2401F05F
S214004E201AFB2046F8BDFF2CF9D0054B03EB041304
S214004E300122C3E901761A73F1E700BF008008403B
S214004E40C42B0020054BD3F82804D3F81C241040AC
S214004E5000F05530C3F82404FFF782BF00800840F6
S214004E60054BD3F82804D3F81C24104000F0AA30D1
S214004E70C3F82404FFF774BF008008400C4B984228
S214004E8010D90C4B984210D9022201230A490B6410
S214004E900A49D1F8003123F0407343EA0263C1F8AF
S214004EA00031704700221346F0E70122FBE700BFFF
S214004EB00048E8010090D0030000C84300400E40C0
S214004EC038B54FF0804300225B68104BC9B21C46D1
S214004ED01D798D4202D11D68854213D20132072A00
S214004EE003F10803F4D10A4841F2CE51FFF720FD42
S214004EF003224FF080414B6823F0407343EA02637D
S214004F004B6038BD04EBC2025279F2E754EE010062
S214004F102BED01001F2810B5044604D903484FF4B2
S214004F20B371FFF705FD0120A04010BD77ED01002D
S214004F30044BDB6B5B0604D4034AD2F8C830002B64
S214004F40FBD1704700300E400000C64308B5FFF79F
S214004F50EFFF024B5868C0F3014008BD00300E401A
S214004F60044BD3F84421D20703D4D3F8402110428F
S214004F70FBD1704700400E40B0F5004F38B50546EF
S214004F8004D30C4840F61C61FFF7D2FC6C1C14BF1F
S214004F90B4FA84F42024C4F11F042046FFF7BAFFB5
S214004FA00138A84204D0034840F62361FFF7C0FC4E
S214004FB0204638BDC8ED010070B54FF0804441F67C
S214004FC07136256C2664FFF733FC0021FFF778FF67
S214004FD0ADB2B5421CBF0023236470BD4FF08043C2
S214004FE041F6713270B51E6C1A6405460C46FFF722
S214004FF067FF134A134B022C08BF13469D42124A02
S214005000B6B209D94FF08C43C3F800210F4A954237
S21400501007D84FF0884306E04FF08843C3F80021D6
S214005020F7E7002CF5D14FF480521A6041F6713341
S2140050309E421EBF4FF0804300221A6470BD00BF20
S2140050400024F40080D543020202020080F0FA0237
S214005050C0F30322013A38B503460E2A3AD8DFE8F1
S21400506002F040433939081B1E212536292E3918EF
S21400507033001F4C0020C3F3043508B1FFF770FF60
S21400508004F1424404F5801405EBC404A400216036
S21400509038BD184C0020EEE7174C0120EBE7174C04
S2140050A01020E8E7164C4FF48070E4E7154C4FF4F8
S2140050B08030E0E7144C81F001010020DBE7134C60
S2140050C081F001010020D6E7114C0020D3E7114CF7
S2140050D00020D0E7BDE838400F4841F66A31FFF7B8
S2140050E027BC0E4C0020C6E70D4C0020C3E700BFCF
S2140050F0B0400E40C4400E40E0400E40E8400E4037
S214005100EC400E40F0400E4060410E4064410E40C0
S214005110F0410E4050410E402BED010000400E4085
S214005120C0400E4008B5C0F30313013B0B2B00F242
S214005130AB80DFE803F0060C101A2024282C6686C5
S21400514092A5534BD3F80001C0F3042008BD504B82
S214005150D3F81401F8E74E4BD3F80001C0F3016012
S2140051600130FFF7D7FE0138F0E7494BD3F80C01C2
S214005170C0F30820EAE7464BD3F81801F8E7444B9B
S214005180D3F81C01F4E7424BD3F80801F0E7414B93
S21400519098422AD00ED8A3F5BA2398422BD003F50E
S2140051A07033984215D041F60E513B48FFF7C0FBCE
S2140051B00020CBE7394B984205D0394B98420ED0A9
S2140051C0384B9842EFD1324BD3F82001C0F302306F
S2140051D0C7E72F4BD3F8200100F00F00C1E72C4B98
S2140051E0D3F82001C0F30120BBE7294BD3F82001F8
S2140051F0C0F30310B5E7264BD3F82001C0F30340F5
S214005200AFE7294B98420CD003F5A11398420ED075
S214005210264B984212D11E4BD3F8280100F003000B
S2140052209FE71B4BD3F82801C0F3011099E7184BF2
S214005230D3F82801C0F30130043092E741F632512A
S214005240B3E71B4B984205D1114BD3F8300100F061
S21400525003007BE741F64151A7E7164B984205D07D
S214005260154B984206D041F659519EE7084BD3F8A5
S2140052705C01ECE7064BD3F85C01C0F3014065E740
S214005280034BD3F8040173E741F666518DE700BF80
S21400529000400E40801618002BED010000362C0052
S2140052A080262E0080002A0090171C0090071A0007
S2140052B0A0091400B8003200B900340008B5FFF7A2
S2140052C031FF013008BD0000C0F30313013B10B5E9
S2140052D00C460B2B00F21882DFE813F00C003400AB
S2140052E045006000740088009C00BC006101CE018F
S2140052F0DA0102021F2904D9C44841F68F51FFF78C
S21400530017FBFFF759FEC248FFF7B8FD00F00AFA90
S214005310C04BD3F8001121F4F85141EA0424C3F835
S2140053200041FFF7C3FA0446FFF710FE0146204689
S214005330FFF754FEFFF780FAFFF7A0FDBDE8104028
S21400534000F006BA1F2904D9B04841F6A551FFF768
S214005350EFFAB04BD3F8141121F4F85141EA0424C3
S214005360C3F8144110BD4B1EB3F5004F0DD2B4FA6E
S21400537084F1A84BD3F80041C1F11F0124F040741A
S21400538044EA0164C3F80041ECE7A34840F62C5118
S214005390FFF7CEFA002CEAD12021EAE7B1F5007F2C
S2140053A004D39A4841F6B251FFF7C2FA994BD3F8A4
S2140053B00C1121F4FF3121F4807141EA0421C3F875
S2140053C00C11CFE7B1F5007F04D3904841F6B951F0
S2140053D0FFF7AEFA8F4BD3F8181121F4FF3121F402
S2140053E0807141EA0421C3F81811BBE7B1F5007FCC
S2140053F004D3864841F6C151FFF79AFA854BD3F895
S2140054001C1121F4FF3121F4807141EA0421C3F814
S2140054101C11A7E7B1F5007F04D37C4841F6C851BC
S214005420FFF786FAFFF7C8FD7A4BD3F8081121F488
S214005430FF3121F4807141EA0421C3F80811FFF717
S21400544035FA0446FFF782FD01462046BDE81040C7
S214005450FFF7C4BD714B984274D010D8704B984279
S21400546046D0704B984257D0A3F57033984226D05A
S21400547041F64461BDE810406448FFF759BA6A4BEC
S214005480984205D0694B984273D0694B9842EFD149
S214005490B4F5004F04D95D4841F63661FFF748FA87
S2140054A02046FFF769FD01460420FFF759FD594ADB
S2140054B0D2F8203123F4E04343EA013315E0B1F596
S2140054C0004F04D9514841F6DA51FFF731FA204629
S2140054D0FFF752FD01460420FFF742FD4D4AD2F881
S2140054E0203123F4702343EA0143C2F8203139E720
S2140054F0022904D941F6EB514448FFF719FA4FF454
S2140055008020FFF72DFD434BD3F8301121F0030127
S2140055100C43C3F8304125E7B1F5004F04D93B48AA
S21400552041F60861FFF704FA2046FFF725FD01461D
S2140055300420FFF715FD374AD2F8203123F00F0379
S2140055400B43D2E7B1F5004F04D9304841F6176156
S214005550FFF7EEF92046FFF70FFD01460420FFF7A0
S214005560FFFC2C4AD2F8203123F0F00343EA011363
S214005570BBE7082904D9254841F62661FFF7D8F984
S2140055802046FFF7F9FC01460420FFF7E9FC214A14
S214005590D2F8203123F4407343EA0123A5E7254BD4
S2140055A098421DD003F5A113984247D0224B98424B
S2140055B05FD1082904D9154841F64D61FFF7B8F9BF
S2140055C02046FFF7D9FC01464020FFF7C9FC114AE8
S2140055D0D2F8283123F003030B43C2F82831C1E682
S2140055E0082904D9094841F65C61FFF7A1F920466D
S2140055F0FFF7C2FC01464020FFF7B2FC054AD2F88E
S214005600283123F0300343EA0113E6E72BED0100CF
S2140056100148E80100400E40C8ED01008016180061
S214005620A00914008006160000362C0080262E00E6
S21400563080002A0090171C0090071A00A1F10F03A3
S214005640702B04D9324841F66B61FFF771F920469A
S214005650FFF792FC01464020FFF782FC2D4AD2F865
S2140056602801043920F4405040EA0130C2F82801ED
S21400567078E641F67A61FDE6274B984205D1022985
S2140056807FF63DAF41F6846136E741F69461F1E678
S214005690224B984205D0224B984212D041F6AD617B
S2140056A0E8E6032904D91A4841F69F61FFF740F956
S2140056B0184BD3F85C1121F003010C43C3F85C418E
S2140056C050E6032904D9124841F6A761FFF730F9DE
S2140056D0104BD3F85C1121F4403141EA0444EDE765
S2140056E0B1F5007F04D30A4841F6B561FFF720F90B
S2140056F0084BD3F8041121F4FF3121F4807141EAFC
S2140057000421C3F804112DE641F6BC61B2E600BFE1
S2140057102BED010000400E40A0091400B800320036
S214005720B900340008B507480321FFF7CDFD064849
S2140057300321FFF7C9FDBDE8084004480321FFF731
S214005740C3BD00BF4041050050410700604109004D
S21400575037B5FFF771F80446FFF7F8FB022817D1B4
S214005760194B1A481A491C449C42B4FBF1F188BFF5
S21400577001F1FF310191FFF7A7FD01991548FFF7E9
S214005780A3FD0199144803B0BDE83040FFF79CBD67
S214005790124B134D0D48E2189A42B2FBF5F588BF3E
S2140057A005F1FF352946FFF78FFD0B482946FFF721
S2140057B08BFD0C4B0C4907481C449C42B4FBF1F192
S2140057C088BF01F1FF31DEE7FF2C310140410500C3
S2140057D0002D310150410700604109007FF0FA02B8
S2140057E080F0FA02FFA14A0400A24A0400F00F006B
S2140057F0013808B50B2879D8DFE800F006111B2F12
S21400580025397843515F6B6F414BD3F8943003F0E2
S2140058100703023B052B76D83E4AD05C30E03C4B73
S214005820D3F8803003F00703013B032B6DD83A4AC8
S214005830F3E7374BD3F8843003F00703013B032B21
S21400584063D8364AE9E7324BD3F8883003F00703CB
S214005850013B032B59D8324ADFE72D4BD3F88C3067
S21400586003F00703013B032B4FD82E4AD5E7284BFE
S2140058701B6F13F0030340D0012B14BF0120092037
S21400588008BD234BD3F85C3103F03003202B36D011
S214005890302B36D0102B14BF01200720F0E71C4B0E
S2140058A0D3F85C3103F44013B3F5001F27D0B3F5EB
S2140058B0401F26D0B3F5801FEDE7154BD3F86001E7
